:100000000C9434000C9451000C9451000C94510049
:100010000C9451000C9451000C9451000C9451001C
:100020000C9451000C9451000C9451000C9451000C
:100030000C9451000C9451000C9451000C945100FC
:100040000C9451000C9451000C9453000C945100EA
:100050000C948C000C9428020C9451000C945100C8
:100060000C9451000C94510011241FBECFEFD8E026
:10007000DEBFCDBF11E0A0E0B1E0E8EAFCE002C0E5
:1000800005900D92A633B107D9F721E0A6E3B1E0C0
:1000900001C01D92A534B207E1F70E9489020C94B9
:1000A00052060C9400001F920F920FB60F9211246B
:1000B0002F933F934F935F936F937F938F939F9370
:1000C000AF93BF93EF93FF9382E090E090933A0158
:1000D000809339018091C60020913B0130913C0111
:1000E000232B29F0E0913B01F0913C0109951092FE
:1000F0003A0110923901FF91EF91BF91AF919F9119
:100100008F917F916F915F914F913F912F910F90C0
:100110000FBE0F901F9018951F920F920FB60F925F
:1001200011242F933F934F935F936F937F938F93FC
:100130009F93AF93BF93EF93FF93809136018150CC
:1001400080933601811120C080913D0190913E0144
:10015000892B29F0E0913D01F0913E010995109223
:100160003A0110923901FF91EF91BF91AF919F91A8
:100170008F917F916F915F914F913F912F910F9050
:100180000FBE0F901F901895E0913701F091380144
:10019000CF0101969093380180933701808180933D
:1001A000C600E1CF1092C50087E68093C40088EDB9
:1001B0008093C10086E08093C200089520913901A8
:1001C00030913A01232BD1F791E0909336011092B0
:1001D00038011092370121E030E030933A0120934A
:1001E00039018093C60080E090E00895009739F1CE
:1001F000611103C083E090E00895209139013091AE
:100200003A01232BD1F7609336019C012F5F3F4FBA
:10021000309338012093370121E030E030933A01E8
:1002200020933901FC0180818093C60080913901BF
:1002300090913A01892BD1F780E090E0089585E014
:1002400090E00895009771F0611103C083E090E0A1
:1002500008952091390130913A01232B31F088E043
:1002600090E0089585E090E00895609336019C0148
:100270002F5F3F4F309338012093370121E030E06A
:1002800030933A0120933901FC0180818093C600AC
:1002900080E090E008952091390130913A0181E0A9
:1002A000232B09F080E0089590933E0180933D0157
:1002B000089590933C0180933B01089581508430D0
:1002C00048F4E82FF0E0EE0FFF1FE050FF4F808171
:1002D0009181089588E091E00895CF93DF93CDB7A1
:1002E000DEB7DA950FB6F894DEBF0FBECDBFCB5F99
:1002F000DE4FE881C550D140E53050F5E150E430A3
:1003000080F5F0E0EE0FFF1FE050FF4F0190F0810D
:10031000E02D86E0DE01119601900D928A95E1F7BD
:100320009E01285F3E4FCA5FDE4F48815981C6500B
:10033000D1406AEF70E0CE0107960E945E03181666
:10034000190634F466E0680FCE0101960E94F600AB
:10035000D3950FB6F894DEBF0FBECDBFDF91CF911E
:100360000895E8E0F1E0D5CF8F929F92AF92BF92CF
:10037000CF92DF92EF92FF920F931F93CF93DF9371
:10038000CDB7DEB7DA950FB6F894DEBF0FBECDBF9E
:100390006A01822E7F936F938EE091E09F938F93FB
:1003A00081E08F931F92CE0101965C019F938F9302
:1003B0000E940C038C010FB6F894DEBF0FBECDBFB8
:1003C000882029F176018A94912CFFEF8F1A9F0AD9
:1003D0008C0C9D1C82E1C82E81E0D82EF701819102
:1003E0007F011F928F93DF92CF92C501800F911FE3
:1003F0009F938F930E943C03080F191F0F900F903B
:100400000F900F900F900F90E814F90439F7F50151
:10041000E00FF11F8DE09AE0918380831282B80192
:100420006E5F7F4FC5010E94F600D3950FB6F8941A
:10043000DEBF0FBECDBFDF91CF911F910F91FF9017
:10044000EF90DF90CF90BF90AF909F908F900895E6
:100450001F920F920FB60F9211242F933F934F9339
:100460005F936F937F938F939F93AF93BF93EF931C
:10047000FF93909178002091790030E0220F331F94
:10048000220F331F892F90E00024880F991F001C32
:10049000880F991F001C892F902D822B932BE091A0
:1004A0003F01F0914001309709F00995FF91EF91DC
:1004B000BF91AF919F918F917F916F915F914F917C
:1004C0003F912F910F900FBE0F901F901895509352
:1004D000400140933F018295880F880F807C8062A5
:1004E00080937C00686860937A0008950895ECE733
:1004F000F0E09081907F892B8083EAE7F0E08081B3
:10050000806480830895089590934401809343010B
:100510000895259A249A78940E94D20044E852E0E3
:1005200067E070E081E090E00E94670281E090E087
:100530000E947702C0E3D1E004E010E22BC08FEC10
:1005400097E00197F1F700C000002C988FEC97E03E
:100550000197F1F700C000002C9A8FEC97E001970B
:10056000F1F700C000002C988FEC97E00197F1F7AD
:1005700000C00000109242011092410185B1812714
:1005800085B99FEF23ED80E3915020408040E1F753
:1005900000C00000809144018F93809143018F93AC
:1005A000DF93CF930F930E946D011092440110923C
:1005B000430181E090E00E9477020F900F900F902E
:1005C0000F900F9080914101909142012C9A892BBC
:1005D00009F0B5CF8FE39FE10197F1F700C000006C
:1005E0002C988FE39FE10197F1F700C000002C9A4F
:1005F0008FE39FE10197F1F700C000002C988FE393
:100600009FE10197F1F700C0000081E090E0909336
:10061000420180934101B2CFAEE0B0E0E2E1F3E00D
:100620000C9429060D891E898F89988D26E02C83CC
:100630001A83098397FF02C080E090E801979E83A8
:100640008D83AE01455E5F4F698D7A8DCE01019637
:100650000E948A034D815E8157FD0AC02F81388533
:10066000421753070CF49A01F801E20FF31F1082AE
:100670002E96E4E00C944506AEE0B0E0E2E4F3E050
:100680000C9429060D891E8986E08C831A830983C0
:100690008FEF9FE79E838D83AE01475E5F4F6F892B
:1006A000788DCE0101960E948A03EF81F885E00FD4
:1006B000F11F10822E96E4E00C944506AEE0B0E007
:1006C000E4E6F3E00C9429068C01FA0186E08C83C1
:1006D0001A83098377FF02C060E070E8CB010197BD
:1006E0009E838D83A901BF01CE0101960E948A03DA
:1006F0004D815E8157FD0AC02F813885421753070F
:100700000CF49A01F801E20FF31F10822E96E4E038
:100710000C944506ABE0B0E0E0E9F3E00C941B0676
:100720006C017B018A01FC0117821682838181FFA3
:10073000CCC1CE0101963C01F6019381F70193FDF6
:10074000859193FF81917F01882309F4BAC1853295
:1007500039F493FD859193FF81917F01853229F4CE
:10076000B60190E00E948105E7CF912C212C312C1D
:10077000FFE1F315D8F08B3279F038F4803279F05C
:100780008332A1F4232D20611DC08D3261F08033AE
:1007900069F4232D216016C0832D8260382EE32D4D
:1007A000E4603E2E2AC0F32DF8601DC037FC2DC03A
:1007B00020ED280F2A3040F08E32B9F436FC81C18A
:1007C000232D2064322E19C036FE06C08AE0989E82
:1007D000200D1124922E11C0EAE02E9E200D11242E
:1007E000222EF32DF0623F2E08C08C3621F4832D8B
:1007F0008068382E02C0883641F4F70193FD859158
:1008000093FF81917F018111B3CF982F9F7D9554E4
:10081000933028F40C5F1F4F9FE399830DC08336FC
:1008200031F0833771F0833509F059C021C0F801E8
:10083000808189830E5F1F4F88248394912C5301FC
:1008400013C02801F2E04F0E511CF801A080B180C6
:1008500036FE03C0692D70E002C06FEF7FEFC50167
:100860000E9476054C018201F32DFF773F2E16C0C2
:10087000280122E0420E511CF801A080B18036FE12
:1008800003C0692D70E002C06FEF7FEFC5010E94C9
:100890006B054C01F32DF0683F2E820133FC1BC029
:1008A000822D90E088169906B0F4B60180E290E0BF
:1008B0000E9481052A94F4CFF50137FC859137FE1B
:1008C00081915F01B60190E00E94810521102A9478
:1008D00021E0821A91088114910471F7E8C08436EE
:1008E00011F0893641F5F80137FE07C0608171814A
:1008F000828193810C5F1F4F08C060817181072E38
:10090000000C880B990B0E5F1F4FF32DFF763F2EC7
:1009100097FF09C090958095709561957F4F8F4F97
:100920009F4FF0683F2E2AE030E0A3010E94BD05F2
:10093000882E861845C0853731F4232D2F7EB22EA0
:100940002AE030E025C0932D997FB92E8F36C1F073
:1009500018F4883579F0B5C0803719F0883721F060
:10096000B0C0E92FE061BE2EB4FE0DC0FB2DF460D7
:10097000BF2E09C034FE0AC0292F2660B22E06C041
:1009800028E030E005C020E130E002C020E132E0A4
:10099000F801B7FE07C060817181828193810C5F8D
:1009A0001F4F06C06081718180E090E00E5F1F4F95
:1009B000A3010E94BD05882E8618FB2DFF773F2ED0
:1009C00036FE0DC0232D2E7FA22E891458F434FE3E
:1009D0000BC032FC09C0832D8E7EA82E05C0B82C1A
:1009E000A32C03C0B82C01C0B92CA4FE0FC0FE017B
:1009F000E80DF11D8081803321F49A2D997EA92E76
:100A000009C0A2FE06C0B394B39404C08A2D8678B0
:100A100009F0B394A3FC11C0A0FE06C0B21488F480
:100A2000280C922C9B180EC0B21460F4B60180E220
:100A300090E00E948105B394F7CFB21418F42B18FC
:100A400002C0982C212CA4FE10C0B60180E390E0D7
:100A50000E948105A2FE17C0A1FC03C088E790E0B8
:100A600002C088E590E0B6010CC08A2D867859F066
:100A7000A1FE02C08BE201C080E2A7FC8DE2B601BC
:100A800090E00E948105891438F4B60180E390E07B
:100A90000E9481059A94F7CF8A94F301E80DF11D25
:100AA0008081B60190E00E9481058110F5CF22205F
:100AB00009F442CEB60180E290E00E9481052A94BA
:100AC000F6CFF6018681978102C08FEF9FEF2B96BC
:100AD000E2E10C943706FC01059061507040011072
:100AE000D8F7809590958E0F9F1F0895FC01615057
:100AF000704001900110D8F7809590958E0F9F1F40
:100B000008950F931F93CF93DF93FB01238121FD62
:100B100003C08FEF9FEF2CC022FF16C04681578184
:100B2000248135814217530744F4A081B1819D018E
:100B30002F5F3F4F318320838C93268137812F5F36
:100B40003F4F3783268314C08B01EC01FB010084E7
:100B5000F185E02D0995892BE1F6D80116968D9146
:100B60009C911797019617969C938E931697CE019A
:100B7000DF91CF911F910F910895FA01AA27283094
:100B800051F1203181F1E8946F936E7F6E5F7F4F5A
:100B90008F4F9F4FAF4FB1E03ED0B4E03CD0670FD6
:100BA000781F891F9A1FA11D680F791F8A1F911D29
:100BB000A11D6A0F711D811D911DA11D20D009F479
:100BC00068943F912AE0269F11243019305D3193BB
:100BD000DEF6CF010895462F4770405D4193B3E0A4
:100BE0000FD0C9F7F6CF462F4F70405D4A3318F04B
:100BF000495D31FD4052419302D0A9F7EACFB4E0FC
:100C0000A6959795879577956795BA95C9F70097B3
:100C10006105710508959B01AC010A2E0694579554
:100C2000479537952795BA95C9F7620F731F841FAB
:100C3000951FA01D08952F923F924F925F926F9241
:100C40007F928F929F92AF92BF92CF92DF92EF925C
:100C5000FF920F931F93CF93DF93CDB7DEB7CA1BDD
:100C6000DB0B0FB6F894DEBF0FBECDBF09942A8808
:100C7000398848885F846E847D848C849B84AA84B0
:100C8000B984C884DF80EE80FD800C811B81AA813D
:100C9000B981CE0FD11D0FB6F894DEBF0FBECDBF08
:080CA000ED010895F894FFCF67
:100CA80018011E0124012A015B554E4B5D00257376
:100CB80020002530325820005B4552525D005B57BA
:100CC800524E5D005B494E465D005B4442475D0005
:060CD80025750D0A000065
:00000001FF
