:100000000C9434000C9451000C9451000C94510049
:100010000C9451000C9451000C9451000C9451001C
:100020000C9451000C9451000C9451000C9451000C
:100030000C9451000C9451000C9451000C945100FC
:100040000C9451000C945E010C9453000C945100DC
:100050000C948C000C9451000C9451000C945100A1
:100060000C9451000C94510011241FBECFEFD8E026
:10007000DEBFCDBF11E0A0E0B1E0E2EBF1E102C0F4
:1000800005900D92AE33B107D9F721E0AEE3B1E0B0
:1000900001C01D92A235B207E1F70E944F050C94F2
:1000A000D7080C9400001F920F920FB60F921124E4
:1000B0002F933F934F935F936F937F938F939F9370
:1000C000AF93BF93EF93FF9382E090E09093420150
:1000D000809341018091C6002091430130914401F9
:1000E000232B29F0E0914301F091440109951092EE
:1000F000420110924101FF91EF91BF91AF919F9109
:100100008F917F916F915F914F913F912F910F90C0
:100110000FBE0F901F9018951F920F920FB60F925F
:1001200011242F933F934F935F936F937F938F93FC
:100130009F93AF93BF93EF93FF9380913E018150C4
:1001400080933E01811120C080914501909146012C
:10015000892B29F0E0914501F09146010995109213
:10016000420110924101FF91EF91BF91AF919F9198
:100170008F917F916F915F914F913F912F910F9050
:100180000FBE0F901F901895E0913F01F091400134
:10019000CF0101969093400180933F01808180932D
:1001A000C600E1CF1092C50087E68093C40088EDB9
:1001B0008093C10086E08093C200089520914101A0
:1001C00030914201232BD1F791E090933E011092A0
:1001D000400110923F0121E030E030934201209332
:1001E00041018093C60080E090E00895009739F1C6
:1001F000611103C083E090E00895209141013091A6
:100200004201232BD1F760933E019C012F5F3F4FAA
:100210003093400120933F0121E030E030934201D0
:1002200020934101FC0180818093C60080914101AF
:1002300090914201892BD1F780E090E0089585E00C
:1002400090E00895009771F0611103C083E090E0A1
:1002500008952091410130914201232B31F088E033
:1002600090E0089585E090E0089560933E019C0140
:100270002F5F3F4F3093400120933F0121E030E05A
:100280003093420120934101FC0180818093C6009C
:1002900080E090E00895209141013091420181E099
:1002A000232B09F080E00895909346018093450147
:1002B0000895909344018093430108951F920F92F3
:1002C0000FB60F9211242F933F934F935F936F9329
:1002D0007F938F939F93AF93BF93EF93FF938091FF
:1002E000470190914801892B61F0E0914701F0911D
:1002F0004801CF01019690934801809347018EB544
:10030000808380914B01815080934B01811120C0EB
:1003100080914E0190914F01892B29F0E0914E017F
:10032000F0914F01099510924D0110924C01FF91EF
:10033000EF91BF91AF919F918F917F916F915F915D
:100340004F913F912F910F900FBE0F901F901895D6
:10035000E0914901F0914A01CF01019690934A0141
:100360008093490180818EBDE2CF84B18C6284B9D3
:1003700081ED8CBD0895CF93DF931F92CDB7DEB78B
:1003800020914C0130914D01232BD1F710924A015D
:10039000109249019E012F5F3F4F309348012093F7
:1003A000470191E090934B0121E030E030934D0103
:1003B00020934C018EBD80914C0190914D01892B71
:1003C000D1F789810F90DF91CF91089520914C0151
:1003D00030914D01232BD1F79C012F5F3F4F30937C
:1003E0004A0120934901709348016093470140936B
:1003F0004B0110924F0110924E0121E030E03093FA
:100400004D0120934C01FC0180818EBD80914C01F7
:1004100090914D01892BD1F70895E0914C01F09115
:100420004D01EF2BD1F7FC013196F0934A01E09397
:100430004901709348016093470140934B01309309
:100440004F0120934E0121E030E030934D01209385
:100450004C01FC0180818EBD089520914C013091AA
:100460004D0181E0232B09F080E008958150843014
:1004700048F4E82FF0E0EE0FFF1FE050FF4F8081BF
:100480009181089588E091E00895CF93DF93CDB7EF
:10049000DEB7DA950FB6F894DEBF0FBECDBFCB5FE7
:1004A000DE4FE881C550D140E53050F5E150E430F1
:1004B00080F5F0E0EE0FFF1FE050FF4F0190F0815C
:1004C000E02D86E0DE01119601900D928A95E1F70C
:1004D0009E01285F3E4FCA5FDE4F48815981C6505A
:1004E000D1406AEF70E0CE0107960E94E30518162E
:1004F000190634F466E0680FCE0101960E94F600FA
:10050000D3950FB6F894DEBF0FBECDBFDF91CF916C
:100510000895E8E0F1E0D5CF8F929F92AF92BF921D
:10052000CF92DF92EF92FF920F931F93CF93DF93BF
:10053000CDB7DEB7DA950FB6F894DEBF0FBECDBFEC
:100540006A01822E7F936F938EE091E09F938F9349
:1005500081E08F931F92CE0101965C019F938F9350
:100560000E9491058C010FB6F894DEBF0FBECDBF7F
:10057000882029F176018A94912CFFEF8F1A9F0A27
:100580008C0C9D1C82E1C82E81E0D82EF701819150
:100590007F011F928F93DF92CF92C501800F911F31
:1005A0009F938F930E94C105080F191F0F900F9002
:1005B0000F900F900F900F90E814F90439F7F501A0
:1005C000E00FF11F8DE09AE0918380831282B801E1
:1005D0006E5F7F4FC5010E94F600D3950FB6F89469
:1005E000DEBF0FBECDBFDF91CF911F910F91FF9066
:1005F000EF90DF90CF90BF90AF909F908F90089535
:10060000009739F0909351018093500180E090E081
:10061000089581E090E00895CF93DF9300D0CDB7A7
:10062000DEB787E089838FEF8A83E0915001F091F4
:10063000510142E0BE016F5F7F4FCB0109958A8176
:1006400090E00F900F90DF91CF910895CF93DF93BB
:1006500000D0CDB7DEB783E089838FEF8A83E09146
:100660005001F091510142E0BE016F5F7F4FCB011D
:1006700009958A8190E00F900F90DF91CF910895B6
:10068000CF93DF9300D0CDB7DEB79C012150310965
:100690002330310538F081E090E00F900F90DF912A
:1006A000CF91089593E299838A83E0915001F0916C
:1006B000510142E060E070E0CE010196099580E0D2
:1006C00090E00F900F90DF91CF9108959F92AF929D
:1006D000BF92CF92DF92EF92FF920F931F93CF932F
:1006E000DF9300D0CDB7DEB76C018B01EDB6FEB65F
:1006F000672B09F478C083E089838FEF8A83E091C8
:100700005001F091510142E0BE016F5F7F4FCB017C
:1007100009959A8022E0C216D10409F4B5C000F10F
:1007200094E0C916D10409F49BC008F485C0F5E033
:10073000CF16D10409F057C0ADB6BEB6892D90E0F2
:1007400001962DB73EB7281B390B0FB6F8943EBF64
:100750000FBE2DBF8DB79EB701966C018FE01AC0FA
:10076000C114D10409F454C0CA94CD28E1F5ADB642
:10077000BEB6892D90E001962DB73EB7281B390BE8
:100780000FB6F8943EBF0FBE2DBF8DB79EB7019632
:100790006C018BE0EDB7FEB7818341E0490DE0913C
:1007A0005001F0915101B601C6010995492D50E063
:1007B00060E070E0411551056105710561F041503F
:1007C0005109610971094F5F5F4FB6016F5F7F4F3C
:1007D000C8010E9488050FB6F894BEBE0FBEADBE1C
:1007E00080E090E002C081E090E00FB6F894FEBE99
:1007F0000FBEEDBE0F900F90DF91CF911F910F9123
:10080000FF90EF90DF90CF90BF90AF909F900895B2
:10081000ADB6BEB6892D90E001962DB73EB7281B28
:10082000390B0FB6F8943EBF0FBE2DBF8DB79EB7E4
:1008300001966C018AE0AECFADB6BEB6892D90E0D0
:1008400001962DB73EB7281B390B0FB6F8943EBF63
:100850000FBE2DBF8DB79EB701966C018DE09ACF6C
:10086000ADB6BEB6892D90E001962DB73EB7281BD8
:10087000390B0FB6F8943EBF0FBE2DBF8DB79EB794
:1008800001966C018EE086CFADB6BEB6892D90E0A4
:1008900001962DB73EB7281B390B0FB6F8943EBF13
:1008A0000FBE2DBF8DB79EB701966C018CE072CF45
:1008B0008F929F92AF92BF92CF92DF92EF92FF9270
:1008C0001F93CF93DF9300D0CDB7DEB77C016B01D0
:1008D000ADB6BEB6672B09F478C083E089838FEF8D
:1008E0008A83E0915001F091510142E0BE016F5FB7
:1008F0007F4FCB0109951A8122E0E216F10409F439
:10090000B5C000F194E0E916F10409F49BC008F4C5
:1009100085C0F5E0EF16F10409F057C08DB69EB61C
:10092000812F90E001962DB73EB7281B390B0FB6EB
:10093000F8943EBF0FBE2DBF8DB79EB701967C01C8
:100940008FE21AC0E114F10409F454C0EA94EF28CC
:10095000E1F58DB69EB6812F90E001962DB73EB79A
:10096000281B390B0FB6F8943EBF0FBE2DBF8DB7B5
:100970009EB701967C018BE2EDB7FEB78183412FD4
:1009800050E060E070E0411551056105710559F0D6
:1009900041505109610971094F5F5F4FB601C701AD
:1009A00001960E94880541E0410FE0915001F091CD
:1009B000510160E070E0C70109950FB6F8949EBE42
:1009C0000FBE8DBE80E090E002C081E090E00FB6E7
:1009D000F894BEBE0FBEADBE0F900F90DF91CF91C9
:1009E0001F91FF90EF90DF90CF90BF90AF909F90BE
:1009F0008F9008958DB69EB6812F90E001962DB709
:100A00003EB7281B390B0FB6F8943EBF0FBE2DBF63
:100A10008DB79EB701967C018AE2AECF8DB69EB6A9
:100A2000812F90E001962DB73EB7281B390B0FB6EA
:100A3000F8943EBF0FBE2DBF8DB79EB701967C01C7
:100A40008DE29ACF8DB69EB6812F90E001962DB79C
:100A50003EB7281B390B0FB6F8943EBF0FBE2DBF13
:100A60008DB79EB701967C018EE286CF8DB69EB67D
:100A7000812F90E001962DB73EB7281B390B0FB69A
:100A8000F8943EBF0FBE2DBF8DB79EB701967C0177
:100A90008CE272CF2A980E94E6012A9A0895299A38
:100AA000219A2A9A229A2D9A259A2B9A239A7894F7
:100AB0000E94D2002FEF83ED90E3215080409040C0
:100AC000E1F700C000000E94B5018AE495E00E94B1
:100AD0000003C0E3D1E004E010E20E940C039F9306
:100AE0008F93DF93CF930F930E94450285B18127A7
:100AF00085B99FEF23ED80E3915020408040E1F7DE
:100B000000C000000F900F900F900F900F90E5CF56
:100B1000FB01DC0102C001900D9241505040D8F71A
:100B20000895AEE0B0E0E7E9F5E00C94AE080D8979
:100B30001E898F89988D26E02C831A83098397FF5D
:100B400002C080E090E801979E838D83AE01455EF0
:100B50005F4F698D7A8DCE0101960E940F064D81FF
:100B60005E8157FD0AC02F813885421753070CF468
:100B70009A01F801E20FF31F10822E96E4E00C9424
:100B8000CA08AEE0B0E0E7ECF5E00C94AE080D89E1
:100B90001E8986E08C831A8309838FEF9FE79E83EB
:100BA0008D83AE01475E5F4F6F89788DCE010196D0
:100BB0000E940F06EF81F885E00FF11F10822E963C
:100BC000E4E00C94CA08AEE0B0E0E9EEF5E00C9485
:100BD000AE088C01FA0186E08C831A83098377FFC3
:100BE00002C060E070E8CB0101979E838D83A9016C
:100BF000BF01CE0101960E940F064D815E8157FD17
:100C00000AC02F813885421753070CF49A01F80166
:100C1000E20FF31F10822E96E4E00C94CA08ABE0BA
:100C2000B0E0E5E1F6E00C94A0086C017B018A01DC
:100C3000FC0117821682838181FFCCC1CE0101960F
:100C40003C01F6019381F70193FD859193FF81911A
:100C50007F01882309F4BAC1853239F493FD859167
:100C600093FF81917F01853229F4B60190E00E94C3
:100C70000608E7CF912C212C312CFFE1F315D8F099
:100C80008B3279F038F4803279F08332A1F4232D5D
:100C900020611DC08D3261F0803369F4232D216005
:100CA00016C0832D8260382EE32DE4603E2E2AC0CC
:100CB000F32DF8601DC037FC2DC020ED280F2A3021
:100CC00040F08E32B9F436FC81C1232D2064322EDF
:100CD00019C036FE06C08AE0989E200D1124922E7F
:100CE00011C0EAE02E9E200D1124222EF32DF06279
:100CF0003F2E08C08C3621F4832D8068382E02C028
:100D0000883641F4F70193FD859193FF81917F012E
:100D10008111B3CF982F9F7D9554933028F40C5FA9
:100D20001F4F9FE399830DC0833631F0833771F0F5
:100D3000833509F059C021C0F801808189830E5F95
:100D40001F4F88248394912C530113C02801F2E093
:100D50004F0E511CF801A080B18036FE03C0692DF2
:100D600070E002C06FEF7FEFC5010E94FB074C01EE
:100D70008201F32DFF773F2E16C0280122E0420E9C
:100D8000511CF801A080B18036FE03C0692D70E0CF
:100D900002C06FEF7FEFC5010E94F0074C01F32DF9
:100DA000F0683F2E820133FC1BC0822D90E0881634
:100DB0009906B0F4B60180E290E00E9406082A94F9
:100DC000F4CFF50137FC859137FE81915F01B601C3
:100DD00090E00E94060821102A9421E0821A9108CE
:100DE0008114910471F7E8C0843611F0893641F519
:100DF000F80137FE07C060817181828193810C5FA9
:100E00001F4F08C060817181072E000C880B990B61
:100E10000E5F1F4FF32DFF763F2E97FF09C0909571
:100E20008095709561957F4F8F4F9F4FF0683F2E53
:100E30002AE030E0A3010E944208882E861845C0AF
:100E4000853731F4232D2F7EB22E2AE030E025C0E5
:100E5000932D997FB92E8F36C1F018F4883579F02B
:100E6000B5C0803719F0883721F0B0C0E92FE061B4
:100E7000BE2EB4FE0DC0FB2DF460BF2E09C034FEA3
:100E80000AC0292F2660B22E06C028E030E005C037
:100E900020E130E002C020E132E0F801B7FE07C0F7
:100EA00060817181828193810C5F1F4F06C06081D8
:100EB000718180E090E00E5F1F4FA3010E94420805
:100EC000882E8618FB2DFF773F2E36FE0DC0232D72
:100ED0002E7FA22E891458F434FE0BC032FC09C0B8
:100EE000832D8E7EA82E05C0B82CA32C03C0B82C51
:100EF00001C0B92CA4FE0FC0FE01E80DF11D8081D8
:100F0000803321F49A2D997EA92E09C0A2FE06C035
:100F1000B394B39404C08A2D867809F0B394A3FCEB
:100F200011C0A0FE06C0B21488F4280C922C9B18A5
:100F30000EC0B21460F4B60180E290E00E94060890
:100F4000B394F7CFB21418F42B1802C0982C212CAC
:100F5000A4FE10C0B60180E390E00E940608A2FE45
:100F600017C0A1FC03C088E790E002C088E590E0CC
:100F7000B6010CC08A2D867859F0A1FE02C08BE222
:100F800001C080E2A7FC8DE2B60190E00E94060855
:100F9000891438F4B60180E390E00E9406089A9420
:100FA000F7CF8A94F301E80DF11D8081B60190E03E
:100FB0000E9406088110F5CF222009F442CEB60126
:100FC00080E290E00E9406082A94F6CFF60186811E
:100FD000978102C08FEF9FEF2B96E2E10C94BC0843
:100FE000FC010590615070400110D8F780959095F4
:100FF0008E0F9F1F0895FC016150704001900110F9
:10100000D8F7809590958E0F9F1F08950F931F938B
:10101000CF93DF93FB01238121FD03C08FEF9FEF6F
:101020002CC022FF16C0468157812481358142178A
:10103000530744F4A081B1819D012F5F3F4F31835D
:1010400020838C93268137812F5F3F4F3783268300
:1010500014C08B01EC01FB010084F185E02D0995A2
:10106000892BE1F6D80116968D919C9117970196E0
:1010700017969C938E931697CE01DF91CF911F9177
:101080000F910895FA01AA27283051F1203181F1FA
:10109000E8946F936E7F6E5F7F4F8F4F9F4FAF4F80
:1010A000B1E03ED0B4E03CD0670F781F891F9A1F93
:1010B000A11D680F791F8A1F911DA11D6A0F711D47
:1010C000811D911DA11D20D009F468943F912AE053
:1010D000269F11243019305D3193DEF6CF0108953B
:1010E000462F4770405D4193B3E00FD0C9F7F6CF6C
:1010F000462F4F70405D4A3318F0495D31FD405234
:10110000419302D0A9F7EACFB4E0A69597958795C9
:1011100077956795BA95C9F70097610571050895A8
:101120009B01AC010A2E0694579547953795279554
:10113000BA95C9F7620F731F841F951FA01D0895EC
:101140002F923F924F925F926F927F928F929F92D7
:10115000AF92BF92CF92DF92EF92FF920F931F93C5
:10116000CF93DF93CDB7DEB7CA1BDB0B0FB6F89476
:10117000DEBF0FBECDBF09942A88398848885F84B6
:101180006E847D848C849B84AA84B984C884DF8027
:10119000EE80FD800C811B81AA81B981CE0FD11D0B
:1011A0000FB6F894DEBF0FBECDBFED010895F894E1
:0211B000FFCF6F
:1011B20018011E0124012A015B554E4B5D00257367
:1011C20020002530325820005B4552525D005B57AB
:1011D200524E5D005B494E465D005B4442475D00F6
:0E11E2006E726620737420253032580D0A009C
:00000001FF
